:020000040800F2
:100000000099002049050008CB010008CD01000837
:10001000D1010008D5010008D90100080000000046
:10002000000000000000000000000000DD010008EA
:10003000DF0100080000000007B50008AD1200084D
:1000400063050008630500086305000863050008F0
:1000500063050008630500086305000863050008E0
:1000600063050008630500086305000863050008D0
:1000700063050008630500086305000863050008C0
:1000800063050008630500086305000863050008B0
:1000900063050008630500086305000863050008A0
:1000A0006305000863050008630500086305000890
:1000B0006305000863050008630500086305000880
:1000C0006305000863050008630500086305000870
:1000D0006305000863050008630500086305000860
:1000E0006305000863050008630500086305000850
:1000F0006305000863050008630500086305000840
:10010000630500086305000863050008630500082F
:10011000630500086305000863050008630500081F
:10012000630500086305000863050008630500080F
:1001300000F002F800F03AF80AA090E8000C8244BF
:100140008344AAF10107DA4501D100F02FF8AFF29C
:10015000090EBAE80F0013F0010F18BFFB1A43F0A5
:1001600001031847A8B70000C8B70000103A24BF21
:1001700078C878C1FAD8520724BF30C830C144BF0C
:1001800004680C607047000000230024002500264E
:10019000103A28BF78C1FBD8520728BF30C148BFEA
:1001A0000B6070471FB51FBD10B510BD0BF063F994
:1001B0001146FFF7F7FF00F077F90BF081F903B470
:1001C000FFF7F2FF03BC0BF085F9704700BFFEE7B5
:1001D00000BFFEE700BFFEE700BFFEE770477047C5
:1001E000704770470CB50020019000906C48006883
:1001F00040F480306A49086000BF6948006800F434
:10020000003000900198401C0190009818B90198A6
:10021000B0F5A06FF1D16248006800F4003010B171
:100220000120009001E0002000900098012843D1B7
:100230005C48006840F010005A49086008460068B1
:1002400020F0030008600846006840F002000860E3
:10025000534840685249486008464068486008462C
:10026000406840F4806048600846406820F47C1094
:1002700048600846406840F4E81048600846006856
:1002800040F08070086000BF4548006800F00070D2
:100290000028F9D04248406820F0030040494860F7
:1002A0000846406840F00200486000BF3C48406893
:1002B00000F00C000828F9D10CBD10B5FFF792FF33
:1002C00010BD10B53648006840F0010034490860A0
:1002D000084640683449084031494860084600688B
:1002E000324908402E4908600846006820F4802002
:1002F00008600846406820F4FE0048604FF41F0084
:100300008860FFF7DAFF4FF000602949086010BDF0
:1003100010B5002100200022214B5B6803F00C0186
:1003200021B1042906D0082928D107E0214B224C0D
:10033000236027E01F4B204C236023E0184B5B68B1
:1003400003F47010164B5B6803F48032022303EB56
:10035000904022B9194B4343174C23600DE0104BDA
:100360005B6803F4003323B1144B4343124C236006
:1003700003E0104B4343104C236003E00D4B0E4C45
:10038000236000BF00BF064B5B68C3F303130C4C34
:10039000E15C094B1B68CB40074C236010BD00009B
:1003A00000100240002002400000FFF8FFFFF6FEB0
:1003B00008ED00E000127A000000002000093D0076
:1003C0000400002008B500BF13E02021484800F0D9
:1003D000E8F96A4600214FF47A7008F01BFA2021F0
:1003E000434800F0E0F96A4600214FF47A7008F0C3
:1003F00011FAEAE708B500BF13E020213D4800F0FC
:10040000D0F96A4600214FF4FA7008F003FA20216F
:10041000384800F0C8F96A4600214FF4FA7008F035
:10042000F9F9EAE770B58AB0044600BF00F0B6FCFF
:100430000AF0F5FF054630480068B5FBF0F6304697
:1004400000F052FF09A8032100220592CDE9062100
:1004500008908021294BCDE9013205201346CDE9D2
:1004600003120090264A27A1294806F0E4F809A8BB
:10047000032100220592CDE9062108908021254B19
:10048000CDE9013206201346CDE903120090224A3D
:1004900022A1254806F0CFF80AF0AAFF09A92348AF
:1004A00006F03AFA0AB070BD00B58BB00AA800F0A9
:1004B000C1FF0AA8032100220592CDE90621089078
:1004C000104680210C221A4BCDE90132CDE90310F0
:1004D00002200023174A18A10090144806F0ABF838
:1004E0000AA801F08AFA00200BB000BD7047000096
:1004F00000180140000C0140C8B60008400600206A
:10050000F5030008417070205461736B31000000E6
:10051000E801002040080020C50300084170702059
:100520005461736B32000000B002002020010020F3
:100530004004002025040008417070205461736B52
:1005400020537461727400000948804709480047CD
:10055000FEE7FEE7FEE7FEE7FEE7FEE7FEE7FEE773
:10056000FEE7FEE704480549054A064B70470000D0
:10057000C302000831010008009300200099002008
:10058000009500200095002010B50446CC48844218
:1005900008D10121042000F02DFB0021042000F0EF
:1005A00029FB46E0C748844208D10121082000F019
:1005B00021FB0021082000F01DFB3AE0C2488442E4
:1005C00008D10121102000F015FB0021102000F0BF
:1005D00011FB2EE0BD48844208D10121202000F00B
:1005E00009FB0021202000F005FB22E0B8488442EE
:1005F00008D10121402000F0FDFA0021402000F048
:10060000F9FA16E0B348844208D10121802000F0B5
:10061000F1FA0021802000F0EDFA0AE0AE488442B1
:1006200007D10121801500F0E5FA0021A01500F0A6
:10063000E1FA10BD10B50121084600F0DBFA0021F7
:10064000012000F0D7FA10BD2DE9F0410246002547
:100650000026002000230024002791F803C00CF09E
:100660000F0591F803C00CF0100CBCF1000F03D083
:1006700091F802C04CEA050591F800C0BCF1000FEA
:1006800031D0146800202BE04FF0010C0CFA00F37D
:10069000B1F800C00CEA03069E4220D183004FF05F
:1006A0000F0C0CFA03F7BC4305FA03FC4CEA0404F4
:1006B00091F803C0BCF1280F06D14FF0010C0CFAE1
:1006C00000FCC2F814C00AE091F803C0BCF1480F66
:1006D00005D14FF0010C0CFA00FCC2F810C0401C10
:1006E0000828D1D31460B1F800C0BCF1FF0F34DD8D
:1006F000546800202EE000F1080C4FF0010808FAC1
:100700000CF3B1F800C00CEA03069E4221D183002D
:100710004FF00F0C0CFA03F7BC4305FA03FC4CEA4C
:10072000040491F803C0BCF1280F05D100F1080CB6
:1007300008FA0CF8C2F8148091F803C0BCF1480F15
:1007400007D100F1080C4FF0010808FA0CF8C2F8C4
:100750001080401C0828CED35460BDE8F0814FF6CD
:10076000FF710180022181700421C170704702462F
:10077000002093680B400BB1012000E0002070477F
:100780000146886880B2704702460020D3680B405B
:100790000BB1012000E0002070470146C86880B21C
:1007A000704701617047416170470AB1016100E023
:1007B00041617047C16070474FF480320A438261E3
:1007C0008161826182698269704702460020434BE1
:1007D00018684FF68073184040EA021008433F4BF8
:1007E000186070473E49C8617047F0B50A4600235B
:1007F00000240021002500F00046B6F1004F02D190
:10080000364EF16901E0354E7168C0F3034583B29D
:1008100000F44016B6F5401F08D121F070612F4E4C
:10082000766826F070662D4F7E6012E000F4801628
:10083000B6F5801F06D1032606FA05F4A14341F060
:10084000706106E0460D360103FA06F6B14341F049
:10085000706122B1460D360103FA06F6314300F00D
:100860000046B6F1004F02D11C4EF16101E01B4E73
:100870007160F0BD30B500228B071C0F0F2303FA07
:1008800004F2164B08338C1053F824309343134C66
:1008900008348D1044F8253023468C1053F824304A
:1008A0008C07240F00FA04F423430C4C08348D10F9
:1008B00044F8253030BD0A49DC310860704700003B
:1008C00000080140000C01400010014000140140EC
:1008D00000180140001C01400020014000000140C0
:1008E00000002042DF48006840F00100DD49086058
:1008F00008464068DC490840DA4948600846006814
:10090000DA490840D74908600846006820F480208A
:1009100008600846406820F4FE0048604FF41F005D
:1009200088607047CF49096821F48031CD4A116051
:100930001146096821F480211160B0F5803F03D091
:10094000B0F5802F0ED106E0C649096841F4803128
:10095000C44A116007E0C349096841F4A021C14AB3
:10096000116000E000BF00BF704710B501460022D3
:10097000002300204A11012A02D1BA4C236806E064
:10098000022A02D1B74C236A01E0B64C636A01F037
:100990001F02012494401C400CB1012000E0002003
:1009A00010BD38B5002000900024002500BF312084
:1009B000FFF7DBFF05460098401C00900098B0F55B
:1009C000A06F01D0002DF2D03120FFF7CEFF08B18B
:1009D000012400E00024204638BD01460020A14A41
:1009E000106820F0F80040EAC10010607047A0498C
:1009F00008607047024600209A4B586820F47C102B
:100A000042EA01031843974B5860704798490866BB
:100A1000704701460020934A506820F003000843C5
:100A2000506070478F48406800F00C0070470146E6
:100A300000208C4A506820F0F00008435060704756
:100A400001460020874A506820F4E0600843506067
:100A5000704701460020834A506820F4605040EA05
:100A6000C1005060704729B17E4A527A02437D4BE3
:100A70005A7204E07B4A527A82437A4B5A72704728
:100A80007B49D8310860704701460020754A50689C
:100A900020F440400843506070470021714A2032E2
:100AA0001170704A82F82010012802D004280AD15F
:100AB00004E001216B4A2032117005E00521694AEA
:100AC0002032117000E000BF00BF70476949086024
:100AD00070476449096A0143624A11627047654977
:100AE00044390860704730B50021002200240023FB
:100AF0005C4D6D6805F00C0121B1042905D0082971
:100B000023D105E05C4D056022E05B4D05601FE0F0
:100B1000544D6D6805F47012524D6D6805F48034C3
:100B2000022505EB92421CB9544D554305600BE07C
:100B30004C4D6D6805F400351DB1504D55430560B1
:100B400002E04D4D5543056002E04B4D056000BF8E
:100B500000BF444D6D6805F0F0010909484D6B5C1C
:100B60000568DD4045603F4D6D6805F4E061090AA8
:100B7000434D6B5C4568DD4085603A4D6D6805F41A
:100B80006051C90A3E4D6B5C4568DD40C560354D1E
:100B90006D6805F44041890B3A4D6B5CC568B5FB47
:100BA000F3F5056130BD29B12E4A526902432D4B40
:100BB0005A6104E02B4A526982432A4B5A617047BA
:100BC00029B1284A92690243264B9A6104E0254ADA
:100BD00092698243234B9A61704729B1214AD269B5
:100BE0000243204BDA6104E01E4AD26982431D4B66
:100BF000DA61704729B11B4AD2680243194BDA60A7
:100C000004E0184AD2688243164BDA60704729B173
:100C1000144A12690243134B1A6104E0114A126923
:100C20008243104B1A61704712494039086070477F
:100C30000F49C86470470B49C87170470948406A3A
:100C400040F0807007494862704701460020054A1D
:100C500092680A400AB1012000E000207047014973
:100C600088727047001002400000FFF8FFFFF6FE98
:100C7000000042428004424200127A0000093D0016
:100C8000140000202400002010B5FC480088401EFD
:100C9000FA49088008460088A0B90AF0DEFBF84946
:100CA000086008460068F7490968441AF648006871
:100CB000A04201D2F4480460F4480068A04201D286
:100CC000F248046010BD10B5F1480088401CF0499E
:100CD0000880EA48008818B90AF0BFFBE9490860B3
:100CE000E6480088401CE549088010BD10B5002486
:100CF00000BF00BF00F032FB044600BFFFF7E3FF78
:100D000000BF1021E34808F055FE00BFFFF7BCFF0D
:100D100000BF204600F026FB00BF00BF10BD10B58D
:100D2000FFF7E4FF10BD70B500260020D849088009
:100D3000D2490880D3490860D1490860D249086087
:100D4000D2490860D4490860002400BF00F006FBC7
:100D5000064600BF00250BE00020CB490860FFF7E6
:100D6000B2FFFFF791FFC84800680444681C85B2D1
:100D7000002DF1D0C84804600020C3490860C34971
:100D8000086000BF304600F0EDFA00BF70BD10B53E
:100D90000020C24908600AF04AFB10BD10B5FFF7F9
:100DA000F6FFFFF7C0FFFFF7BAFF10BD00BFFEE779
:100DB00070B505460C46002614B900BFFFF7F6FFD4
:100DC00015B90A20208070BD00BF00BF00F0C6FA30
:100DD000064600BFFFF777FF00BF1022AD49284647
:100DE00009F07AFD00BFFFF74FFF00BF304600F06B
:100DF000B9FA00BF00BF0020208000BFE3E72DE963
:100E0000F04105460C46002714B900BFFFF7CEFF9E
:100E10001DB90A202080BDE8F0811021284609F084
:100E200043FD0646102E19D200BF00BF00F096FA0F
:100E3000074600BFFFF747FF00BF1022294695482D
:100E400009F04AFD00BFFFF71FFF00BF384600F062
:100E500089FA00BF00BF0020208002E04FF47A70C2
:100E6000208000BFD7E710B50AF0F7FA0446204605
:100E700010BD704700B5014611B900BFFFF796FFDE
:100E8000864A106808B1002201E04FF4FA620A8035
:100E900000BD824908607047014608467E4A1268D4
:100EA000904203D97C4A1268801A00E00020704703
:100EB00070B5002500BF00F051FA054600BF72482A
:100EC000046800BF284600F04DFA00BF2046FFF737
:100ED000E3FF0646304670BD70B50025FFF7E8FF1A
:100EE000044600BF00F03AFA054600BF00206649FC
:100EF000086000BF284600F035FA00BF204670BDEC
:100F000070B5002500BF00F029FA054600BF5F4814
:100F1000046800BF284600F025FA00BF2046FFF70E
:100F2000BBFF0646304670BD70B50546284600F04A
:100F300020FA0446183C204670BD70B50546284688
:100F400000F017FA0446103C204670BD70B5054607
:100F5000284600F00EFA044600BF204670BD30B5AA
:100F600002460B464FF0FF350024AD1A9C4127D2B4
:100F70004FF0FF352C0CAD1A9C410FD24FF0FF35CE
:100F80002C0AAD1A9C4103D2190E454C605C45E019
:100F9000190C434C645C04F108003FE04FF0FF354E
:100FA000FF24AD1A9C4105D2190A3D4C645C04F142
:100FB000100033E019463A4C645C04F118002DE04F
:100FC0004FF6FF750024AD1A9C4115D26FF07F4596
:100FD0000024AD1A9C4107D2140E44EA0321304C80
:100FE000645C04F1200019E0140C44EA03412C4C29
:100FF000645C04F1280011E0FF250024AD1A9C4137
:1010000007D2140A44EA0361254C645C04F1300001
:1010100004E01146224C645C04F1380030BD70B528
:1010200004460CB9082070BD204600F0A5F905461D
:101030002846F8E770B504460CB9102070BD20466C
:1010400000F09AF905462846F8E770B504460CB951
:10105000202070BD204600F08FF905462846F8E7AD
:101060002DE9F04304460D46002184EA0100694061
:10107000084317D14020BDE8F08300002E00002077
:1010800034000020300000203C0000204000002000
:101090002C000020400C00203800002028000020F8
:1010A00068B50008E243E843521C40F1000102EA3F
:1010B000040601EA050730463946FFF750FF80462F
:1010C000C8F13F094846D6E710B59248006810B10C
:1010D00090480068804710BD8F4A1168002002E0E8
:1010E000002204C1401C8D4A12689042F8D38A4AFB
:1010F00012688A4B1B6802EB8302121F884B1A602E
:10110000704710B58748006810B18648006880476E
:1011100010BD10B504468448006818B120468249C5
:101120000968884710BD10B504468048006818B1AA
:1011300020467E490968884710BD10B504467C48A2
:10114000006818B120467A490968884710BDF0B593
:101150000446DDE9055602EB85004FF0807C071F51
:101160003846C7F800C0071F38463C60DFF8C4C1E6
:10117000071F3846C7F800C04FF0123C071F38461B
:10118000C7F800C04FF0033C071F3846C7F800C03F
:101190004FF0023C071F3846C7F800C0071F38460B
:1011A0003B60071F384639604FF0113C071F384637
:1011B000C7F800C04FF0103C071F3846C7F800C002
:1011C0004FF0093C071F3846C7F800C04FF0083CF5
:1011D000071F3846C7F800C04FF0073C071F3846C6
:1011E000C7F800C04FF0063C071F3846C7F800C0DC
:1011F0004FF0053C071F3846C7F800C04FF0043CCD
:10120000071F3846C7F800C0F0BD70B54A480068EF
:1012100010B14948006880470AF01FF90446474862
:10122000006847490968884215D044480068D0F8EA
:101230009800201A41490968C1F894003F480068A5
:10124000D0F89C003D490968D1F8941008443B4906
:101250000968C1F89C003A480068C0F89840FFF758
:101260003BFE054635480068D0F8B400A84203D2DA
:1012700032480068C0F8B45030480068D0F8B80070
:1012800030490968884205D22E4800682B49096810
:10129000C1F8B80000202B49086070BD10B52A487D
:1012A000006810B128480068804710BD10B50024C0
:1012B00000BF00BF00F052F8044600BFFFF703FD77
:1012C00000BF22480078401C2049087000BFFFF78B
:1012D000DBFC00BF204600F045F800BF00BF07F070
:1012E0009AFD00F04EF910BD01464A1E4FF0E02372
:1012F0005A61174A106820F07F4000BF10601A46FC
:10130000126942F005021A611A46126942F002029D
:101310001A6170475800002094B6000898B600087B
:10132000440000205C0000204C0000205000002001
:1013300054000020B7820008600000201401002043
:1013400018010020B8000020640000206C0000207C
:1013500020ED00E072B6704762B67047EFF3108080
:1013600072B6704780F31088704730BF704720BF57
:101370007047B0FA80F0704790FAA0F0B0FA80F0B1
:10138000704790FAA0F0704770470000002400BF3B
:101390001DE000BF00BFFFF7E1FF044600BFFFF7FD
:1013A00092FC00BFFA480068401CF9490860F948FF
:1013B0000068401CF749086000BFFFF765FC00BFEC
:1013C0002046FFF7CFFF00BF00BFFFF77DFEE0E73D
:1013D00010B58AB004460020ED4908600B200021BA
:1013E0000591CDE9070406910846EB490968EB4AE7
:1013F0001268EB4B1B68CDE90132CDE903101F20C9
:101400000023AFF27702E7A10090EB4805F013F953
:101410000AB010BD00210AE001EB4102E74B03EBEB
:10142000820000220281026042604A1CD1B220295F
:10143000F2D3704770B50446FFF74EFE0020E04936
:101440000870E0490870E0490870E0490860E04928
:101450000860E0490870E0490870E0490870E04918
:101460000860E0490860E0490860E0490870E04829
:1014700000680A21B0FBF1F0DE490860DE48006830
:1014800058B1DE48056845B1DB48066803E0761EC2
:10149000002028602D1D002EF9D10020D8490860B9
:1014A000D8490860D8490860D8490860D849086018
:1014B000D8490860D8490860D849087003F00EFA86
:1014C000FFF7A8FF204601F054FF208800B170BD4F
:1014D000204602F0BDFA208800B1F8E7204602F06D
:1014E000C9FA208800B1F2E7204603F0DFF920882E
:1014F00000B1ECE7204603F01BFF208800B1E6E7CF
:10150000204604F0B3FB208800B1E0E7204606F057
:10151000C9FE208800B1DAE7204602F0BEF8208834
:1015200000B1D4E72046FFF753FF208800B1CEE793
:10153000204607F020F8208800B1C8E7204604F0D4
:10154000A1FE208800B1C2E7204608F016F82088E6
:1015500000B1BCE700F042FEFFF716FF00BFB6E7A0
:1015600098480078012800D0704795480078FA28FC
:1015700000DBF9E792480078401C9149087000BFF1
:10158000F2E710B500248F480078012800D010BD84
:1015900000BFFFF7E3FE044600BF8948007828B982
:1015A00000BF2046FFF7DEFE00BFF0E7844800786A
:1015B000401E8349087008460078002805DD00BFFA
:1015C0002046FFF7CFFE00BFE1E77F480078002804
:1015D00005DD00BF2046FFF7C5FE00BFD7E703F0DB
:1015E00087F97D4908700846007800EB4000734990
:1015F00051F8200076490860084600687349096878
:10160000884205D100BF2046FFF7ACFE00BFBEE711
:101610006F480068D0F89000401C6D490968C1F817
:1016200090007F480068401C7D4908604FF0805062
:101630007C49086000BF2046FFF794FE00BF00BF52
:10164000A5E710B500245E480078002800DD10BD35
:101650005D480078002800DDF9E700BFFFF77EFE57
:10166000044600BF03F044F95B490870084600785F
:1016700000EB4000514951F82000554908600846E8
:10168000006852490968884205D100BF2046FFF72B
:1016900069FE00BFDBE74E480068D0F89000401CB0
:1016A0004B490968C1F890005D480068401C5C49DE
:1016B00008604FF080505B49086000BF2046FFF78C
:1016C00051FE00BF00BFC2E710B53F4800780128B7
:1016D00003D109F0C2FE4249086010BD70B504464E
:1016E000002537480078002803DD46F66250208048
:1016F00070BD34480078012803D045F68960208009
:10170000F6E731480078FA2803DB45F2092020800B
:10171000EEE700BF00BFFFF721FE054600BFFFF761
:10172000D2FA00BF28480078401C27490870FFF70C
:10173000CBFF00BFFFF7A8FA00BF2846FFF712FE55
:1017400000BF00BF0020208000BFD1E710B51E48B9
:10175000007880B909F081FE21490968441A2148BE
:101760000068A04201D21F4804601F480068A042E0
:1017700001D21D48046010BD70B504460025104814
:101780000078002850DD46F66550208070BD0000CE
:1017900068000020D400002070B600086CB6000875
:1017A00068B6000875432F4F532D494949204964B5
:1017B0006C65205461736B00E02000207C220020C7
:1017C0006C00002074000020BC00002014010020E8
:1017D00018010020A2000020A3000020A400002087
:1017E000B0000020B4000020B8000020C400002099
:1017F000C8B60008C000002098B6000894B60008DB
:101800004C00002050000020540000205800002010
:101810005C0000206000002064000020F200002036
:10182000E800002004ED00E0FA480078012803D029
:1018300045F68960208070BDF748007818B946F6F3
:1018400064502080F7E700BF00BFFFF787FD054623
:1018500000BFFFF738FA00BFEF480078401EEE499E
:1018600008700846007800280CDD00BFFFF70CFA6E
:1018700000BF2846FFF776FD00BF00BF46F6635065
:101880002080D8E7FFF762FF00BFFFF7FDF900BF38
:101890002846FFF767FD00BF00BFFFF7D2FE00201C
:1018A000208000BFC7E72DE9F04105460C461646EB
:1018B000002700BF00BFFFF751FD074600BFFFF73D
:1018C00002FA00BF012D03D00020D449087002E0C5
:1018D0000120D249087014B1D148046006E0D14813
:1018E00000680A21B0FBF1F0CD49086000BFFFF7A6
:1018F000CBF900BF3846FFF735FD00BF00BF002021
:101900003080BDE8F08110B501460C8924B1012C6E
:1019100003D0022C0CD101E000BF14E008684A6833
:1019200002610024C4601461D0600A6048600AE06B
:1019300008684A68C36800241C61C4600261D06002
:101940000B60486000BF00BF10BD2DE9F0410446A8
:101950000027B5480078002804DD48F2D1402080F7
:10196000BDE8F081AC480078002803DD46F66350FE
:101970002080F5E7A9480078012803D046F67B10BF
:101980002080EDE700BF00BFFFF7E8FC074600BF7F
:10199000FFF799F900BFA548007800EB4000A44983
:1019A00001EB8006308902280CDA00BFFFF76CF9E2
:1019B00000BF3846FFF7D6FC00BF00BF46F67A10DE
:1019C0002080CDE73046FFF79EFF3568686D18B977
:1019D00093480068A86501E0686DA86500BFFFF73F
:1019E00053F900BF3846FFF7BDFC00BF00BFFFF74B
:1019F00028FE0020208000BFB2E710B504468548CD
:101A00000078E8B902F074FF8A4908700846007847
:101A1000864908708748007800EB4000844951F8F7
:101A20002000854908600846006884490860012054
:101A30007849087009F056FD43F69920208002E0AD
:101A400045F68A60208010BD01460020088047F2DC
:101A50005D60704730B548B14568C1F8C45000F1C9
:101A60000804226893681D6AC56113E091F8345038
:101A7000022D02D0072D08D103E071A5C1F8C45092
:101A800007E071A5C1F8C45003E072A5C1F8C450C5
:101A900000BF00BF30BDF0B58E6896F8375007899B
:101AA0003FB90127078100274F600F600160416047
:101AB00023E007897F1C0781026806E0946894F898
:101AC0003770AF4200DD02E05268002AF6D100BF55
:101AD00032B900274F6043680B60596041600CE0E9
:101AE00017682FB9116000270F604A60016004E099
:101AF00013680B604A6059601160F0BD10B5C28771
:101B0000016300230AE000244C600C600C614C610E
:101B10000C83CC61886020315C1CA3B29342F2DB61
:101B200010BD2DE9F041054695F8370000EB400067
:101B30003F4901EB80042F69EE6887B946B9002060
:101B400020812060606095F8370002F0F3FE0EE01F
:101B50002089401E208100203061266007E0208916
:101B6000401E2081FE600EB9676000E037610020F2
:101B70002861E860BDE8F08138B504460D4685B1BE
:101B80006B4602222946204606F036FDBDF80000CD
:101B900018B9032084F8360006E0022084F83600E5
:101BA00002E0022084F836002046FFF7BAFF38BD75
:101BB0002DE9F04105460C4616461F461F480068B1
:101BC00080F8346000201D49096881F835003946E5
:101BD0001A480068FFF7D0FF6CB104F10808EC6008
:101BE0000122294615480068FFF788FF294640462C
:101BF000FFF751FF06E0002010490968C8870F4928
:101C0000096808630D4801682046FFF723FFBDE817
:101C1000F081000074000020BC000020C4000020FF
:101C2000C0000020C8B600086C000020A200002000
:101C30007C220020A30000201801002014010020B5
:101C40005461736B205100005461736B2053656DB8
:101C5000000000002000000010B50489012C03D111
:101C600000240460446011E00C6824B94A68002430
:101C7000146002600AE04C6824B90B6800245C60C0
:101C8000436003E00B684A685A6013600489641E6D
:101C9000048100244C600C6010BD2DE9F041044625
:101CA000256BE68F0AE0D5F80C8008F10807294675
:101CB0003846FFF7D1FF2035701E86B2002EF2DCC9
:101CC0000020E0872063BDE8F08130B50346086B53
:101CD000CC8F08E0C5689D4202D10361C26104E077
:101CE0002030651EACB2002CF4DC00BF30BD10B556
:101CF00090F8373003EB4303F64C04EB83010B8978
:101D00003BB901230B810023C36003610860486075
:101D100009E00B895B1C0B810B68C3600023036126
:101D20000A681061086010BD10B590F8373003EBF9
:101D30004303E84C04EB83010B893BB901230B817E
:101D40000023C36003610860486008E00B895B1CE6
:101D50000B810023C3604A680261D060486010BDF7
:101D600010B5044694F8370002F0D4FD94F837001B
:101D7000D9490978884203D12046FFF7D5FF02E010
:101D80002046FFF7B4FF10BD10B50446204606F00C
:101D9000AFFA94F8360000F0040010B92046FFF7BF
:101DA000DFFF10BD70B505460C46164694F83600A8
:101DB000082847D2DFE800F00405080906072728AD
:101DC00000BF00BF00BF3EE000BF94F8340003280E
:101DD00004D1324621462846FFF777FF0020E06510
:101DE000A4F86000266415B12046FFF756FF204690
:101DF000FFF7CAFF00203434A0700120607000207B
:101E000004F834091FE000BF94F83400032804D11B
:101E1000324621462846FFF758FF0020E065A4F827
:101E20006000266415B12046FFF737FF204606F014
:101E30005FFA04203434A07001206070002004F8A0
:101E4000340900E000BF00BF70BD30B5AFF2FC1533
:101E5000C1F8C45000F1080422681AB193681D6AE1
:101E6000C56102E0AFF21425C56130BD2DE9F04334
:101E700004460F4684F83770256BB4F83E8013E0B3
:101E8000D5F80C9009F108063089012807D92946B0
:101E90003046FFF7E1FE29463046FFF7FCFD2035CE
:101EA000A8F101001FFA80F8B8F1000FE8D1BDE8F1
:101EB000F0830021016041600181704703895B1C50
:101EC000038103684B6000230B60026802B111605C
:101ED00001600389012B00D14160704730B5034692
:101EE000086BCC8F08E0C5689D4202D10361C261D6
:101EF00004E02030651EACB2002CF4DC00BF30BD25
:101F000070B506460C46154694F83600082845D2AA
:101F1000DFE800F0040508090607262700BF00BF18
:101F200000BF3CE000BF94F83400032804D12A46E7
:101F300021463046FFF7D2FF0020E065A4F860009C
:101F400025642046FFF7A9FE2046FFF71DFF00206D
:101F50003434A07002206070002004F834091EE0C0
:101F600000BF94F83400032804D12A4621463046A5
:101F7000FFF7B4FF0020E065A4F860002564204668
:101F800006F0B6F92046FFF788FE04203434A0702E
:101F900002206070002004F8340900E000BF00BF98
:101FA00070BDF0B50446059E086BCD8F0AE0C7688A
:101FB000A74204D1046142610383C66104E020307A
:101FC0006F1EBDB2002DF2DC00BFF0BD2DE9F8435D
:101FD00006460C4617469846089D94F83600082891
:101FE00050D2DFE800F00405080906072B2C00BFDB
:101FF00000BF00BF47E000BF94F83400032807D1BA
:1020000043463A46214630460095FFF7CAFF03E0B3
:10201000E765A4F86080256436B12046FFF73DFEF1
:1020200021463046FFF711FF2046FFF7ADFE0020A6
:102030003434A070607004F8340924E000BF94F8D0
:102040003400032807D143463A46214630460095DE
:10205000FFF7A7FF03E0E765A4F86080256420464A
:1020600006F046F936B12046FFF717FE2146304606
:10207000FFF7EBFE04203434A0700020607004F8F9
:10208000340900E000BF00BFBDE8F88310B50024AC
:1020900000BFFFF763F9044600BF00200F49087036
:1020A0000F481049086008460068D0F89000401CAE
:1020B0000968C1F890000C480068401C0A49086093
:1020C0004FF080500949086000BF2046FFF74AF9E9
:1020D00000BF10BD7C220020A2000020A300002031
:1020E000A821002018010020E800002004ED00E0F5
:1020F00070B50546002635480078012800D070BD2F
:1021000000BF00BFFFF72AF9064600BFFEF7DBFD60
:1021100000BF2C684CB900BFFEF7B6FD00BF3046CB
:10212000FFF720F900BF00BFE9E72948844209D141
:1021300000BFFEF7A9FD00BF3046FFF713F900BF4F
:1021400000BFDCE7A06D10B1A06D401EA065A06DC2
:1021500048B100BFFEF798FD00BF3046FFF702F917
:1021600000BF00BFCBE72889022809DA00BFFEF7CD
:102170008BFD00BF3046FFF7F5F800BF00BFBEE79C
:1021800014480078002809DD00BFFEF77DFD00BF80
:102190003046FFF7E7F800BF00BFB0E72846FFF77B
:1021A000B2FB2C68606D18B90B480068A06501E0AF
:1021B000606DA06500BFFEF767FD00BF3046FFF70A
:1021C000D1F800BF00BF00BF99E70000C4000020A5
:1021D000E0200020BC000020C0000020254A264945
:1021E000264A274A2749284A2848294A294A2A4A62
:1021F0002A4A2B482B482C482C4A2D482D4A2E4839
:102200002E4A2F482F4830483048314A314A324A06
:102210003248334A334A34483448354835483648DA
:1022200036483748374A384A384A394A39483A48A6
:102230003A483B4A3B4A3C4A3C483D483D483E4977
:102240003E483F4A3F4A404A404A414A414A424A40
:102250004248434A434A44484448454A454A464816
:10226000464A474A47484848484800BF00BF00BF61
:10227000704700000CB7000874B800080DB70008DC
:102280000EB7000810B7000814B7000818B7000808
:1022900015B7000840B7000841B7000842B700086A
:1022A00044B7000846B7000848B700084AB7000816
:1022B0004CB700086CB700086EB7000870B700088C
:1022C00072B7000874B7000876B7000878B700083E
:1022D000A4B70008A5B70008A6B70008A8B700086B
:1022E000AAB70008ABB70008ACB70008AEB7000843
:1022F000B0B70008B2B70008B4B70008B6B7000816
:10230000B8B70008E8B70008E9B70008EAB700085E
:10231000EBB70008ECB70008EEB70008F0B700080C
:1023200018B8000819B800081AB800081BB8000847
:102330001CB800081EB8000820B8000824B800081F
:1023400025B8000826B8000827B8000828B80008F3
:1023500029B800082AB800082BB800082CB80008D3
:102360002EB800082FB8000830B8000832B80008AE
:1023700034B8000835B8000838B800086CB8000850
:102380006DB800086EB8000870B8000872B8000890
:10239000FCA1C16100214161FB49096811B900211B
:1023A000816105E0F84909688161F7490968486178
:1023B000F549086070472DE9F04104460E4617467E
:1023C0001D464FF00008F1480078002804DD42F671
:1023D000E1602880BDE8F0811CB945F6C350288033
:1023E000F8E700BF00BF00BFFEF7B8FF804600BFA0
:1023F000FEF769FC00BFE6480078401CE44908701D
:1024000008460078012801D1FFF75EF900BFFEF70A
:102410003BFC00BF4046FEF7A5FF00BF00BF00BF6A
:10242000DC482060666027620020606204F10800DA
:10243000FFF73FFD2046FFF7ABFFD7480088401C61
:10244000D549088000BF00BF00BFFEF787FF804668
:1024500000BFFEF738FC00BFCD480078401ECC49D5
:1024600008700846007808B9FFF770F900BFFEF75A
:102470000BFC00BF4046FEF775FF00BF00BF00BF6A
:102480000020288000BFA5E770B50446C34820603F
:10249000C3A060600020206204F108052846FFF711
:1024A00008FD70BD426981693AB9B74B196009B13D
:1024B00000234B610023836109E019B90023936174
:1024C000436104E091614A61002383614361704785
:1024D0002DE9FC5F05468846144600200090AB4875
:1024E0000078002805DD43F2C92020800020BDE8E7
:1024F000FC9F25B945F6C35020800020F7E7B8F1CE
:10250000000F03D0B8F1010F02D100E000BF04E0DA
:1025100045F6256020800020E9E700BF9D49286836
:10252000884204D045F6C45020800020DFE700BF79
:1025300000BF00BFFEF712FF009000BFFEF7C3FB15
:1025400000BF93480078401C914908700846007805
:10255000012801D1FFF7B8F800BFFEF795FB00BFD7
:102560000098FEF7FFFE00BF00BF00BF05F108099D
:10257000B9F808603746B8F1000F03D0B8F1010F81
:1025800074D182E0002F44D12846FFF78BFF8248A8
:102590000088401E804908802846FFF775FF00BF6D
:1025A00000BF00BFFEF7DAFE009000BFFEF78BFB16
:1025B00000BF77480078401E7549087008460078CB
:1025C000D0B9FFF7C3F87848008800280BDD00BFBA
:1025D000FEF75AFB00BF0098FEF7C4FE00BF00BF25
:1025E000FFF754FD11E000BFFEF74EFB00BF00985F
:1025F000FEF7B8FE00BF08E000BFFEF745FB00BFD6
:102600000098FEF7AFFE00BF00BF00BF0020208093
:102610003AE000BF00BF00BFFEF7A0FE009000BF81
:10262000FEF751FB00BF5A480078401E5849087019
:1026300008460078D8B9FFF789F85B480088002879
:102640000BDD00BFFEF720FB00BF0098FEF78AFEFF
:1026500000BF00BFFFF71AFD12E000BFFEF714FB3A
:1026600000BF0098FEF77EFE00BF09E04CE000BF0F
:10267000FEF70AFB00BF0098FEF774FE00BF00BF24
:1026800000BF47F25F10208079E008F0E6FE01907D
:102690000AE0D9F800A0DAF808B059462846019AAD
:1026A000FFF72EFC701E86B2002EF2D12846FFF7EF
:1026B000F9FE39480088401E374908802846FFF750
:1026C000E3FE00BF00BF00BFFEF748FE009000BF62
:1026D000FEF7F9FA00BF2E480078401E2C4908701A
:1026E0000846007808B9FFF731F800BFFEF7CCFACA
:1026F00000BF0098FEF736FE00BF00BF00BFFEF728
:10270000A0FF002020803AE000BF00BF00BFFEF71E
:1027100025FE009000BFFEF7D6FA00BF1C480078E7
:10272000401E1B49087008460078D0B9FFF70EF824
:102730001D48008800280BDD00BFFEF7A5FA00BF8A
:102740000098FEF70FFE00BF00BFFFF79FFC11E0EF
:1027500000BFFEF799FA00BF0098FEF703FE00BF26
:1027600008E000BFFEF790FA00BF0098FEF7FAFD00
:1027700000BF00BF00BF45F62560208000BF00BF3E
:102780003846B4E6200000008C0000206C000020D9
:10279000BC000020464C4147900000204E4F4E4563
:1027A0003F464C4147000000800000202DE9F041E9
:1027B00006460F4614461D46DDF81880FE480068A0
:1027C000C0F88040FC480068A0F888500020FA4912
:1027D0000968C1F884004346012239463046FFF7B4
:1027E000E7F9BDE8F0812DE9F04F8BB0054688464A
:1027F00093469946DDE9147400200190EF48007873
:10280000002806DD46F2AE10208000200BB0BDE8A7
:10281000F08F25B945F6C35020800020F6E748F236
:102820000101A9EB0100894536D01ADC40F2011103
:10283000A9EB010089452BD00CDCB9F1010F23D0A5
:10284000B9F1020F21D0B9F1040F1FD0B9F1080F6F
:102850002AD11CE001281CD003281BD0072823D133
:1028600019E0B0F5807F1BD006DC012815D00328C5
:1028700014D0072818D112E0A0F2011088B1022864
:1028800010D0062810D10EE000BF00BF00BF00BF6F
:1028900000BF00BF00BF00BF00BF00BF00BF00BF40
:1028A00000BF00BF00BF04E045F625602080002087
:1028B000ACE700BFC2492868884204D045F6C4503E
:1028C00020800020A2E709F4807010B14FF0010AC7
:1028D00001E04FF0000A0FB10020386009F00F004E
:1028E0000A9000BF00BFFEF739FD019000BFFEF760
:1028F000EAF900BF0A9801287ED002287DD004287A
:1029000002D008287AD182E0286A00EA0806464503
:1029100019D1BAF1010F02D1286AB0432862A64842
:102920000068C0F884600FB1686A386000BFFEF7C5
:10293000ABF900BF0198FEF715FD00BF00BF0020F6
:102940002080304662E709F4004068B100BFFEF71E
:102950009BF900BF0198FEF705FD00BF00BF46F2DE
:10296000B0102080002051E79648007800280DDD47
:1029700000BFFEF789F900BF0198FEF7F3FC00BF26
:1029800000BF46F66350208000203FE700BF8D481F
:102990000078401C8B49087008460078012801D156
:1029A000FEF792FE00BFFEF76FF900BF0198FEF739
:1029B000D9FC00BF00BF00BF4B464246294602A8D3
:1029C000CDF800B0FFF7F2FE00BF00BF00BFFEF77A
:1029D000C5FC019000BFFEF776F900BF794800788A
:1029E000401E784908700846007808B9FEF7AEFE28
:1029F00000BFFEF749F902E087E00EE18BE100BF7E
:102A00000198FEF7AFFC00BF00BF00BF91E1286A4C
:102A100000EA0806CEB1BAF1010F02D1286AB0432C
:102A2000286265480068C0F884600FB1686A386041
:102A300000BFFEF729F900BF0198FEF793FC00BF25
:102A400000BF002020803046E0E609F4004068B175
:102A500000BFFEF719F900BF0198FEF783FC00BF25
:102A600000BF46F2B01020800020CFE65548007825
:102A700000280DDD00BFFEF707F900BF0198FEF743
:102A800071FC00BF00BF46F6635020800020BDE609
:102A900000BF4C480078401C4A490870084600783E
:102AA000012801D1FEF710FE00BFFEF7EDF800BFD0
:102AB0000198FEF757FC00BF00BF00BF4B464246DF
:102AC000294602A8CDF800B0FFF770FE00BF00BF96
:102AD00000BFFEF743FC019000BFFEF7F4F800BF13
:102AE00038480078401E374908700846007808B911
:102AF000FEF72CFE00BFFEF7C7F800BF0198FEF7F7
:102B000031FC00BF00BF00BF13E1286A28EA0006BD
:102B1000464519D1BAF1010F02D1286A3043286223
:102B200025480068C0F884600FB1686A386000BF4B
:102B3000FEF7AAF800BF0198FEF714FC00BF00BF23
:102B400000202080304661E609F4004068B100BFF3
:102B5000FEF79AF800BF0198FEF704FC00BF00BF23
:102B600046F2B0102080002050E616480078002879
:102B70000DDD00BFFEF788F800BF0198FEF7F2FBFD
:102B800000BF00BF46F66350208000203EE600BF35
:102B90000C480078401C0B49087008460078012852
:102BA00001D1FEF791FD00BFFEF76EF800BF01985E
:102BB000FEF7D8FB00BF07E0140100206C000020E6
:102BC000464C4147BC00002000BF00BF4B46424678
:102BD000294602A8CDF800B0FFF7E8FD00BF00BF0E
:102BE00000BFFEF7BBFB019000BFFEF76CF800BF13
:102BF000F8480078401EF74908700846007808B980
:102C0000FEF7A4FD00BFFEF73FF800BF0198FEF7F6
:102C1000A9FB00BF00BF00BF8BE0286A28EA0006BE
:102C2000CEB1BAF1010F02D1286A30432862EA48D6
:102C30000068C0F884600FB1686A386000BFFEF7B2
:102C400023F800BF0198FEF78DFB00BF00BF0020F6
:102C500020803046DAE509F4004068B100BFFEF795
:102C600013F800BF0198FEF77DFB00BF00BF46F2DE
:102C7000B01020800020C9E5D648007800280DDD7E
:102C800000BFFEF701F800BF0198FEF76BFB00BF25
:102C900000BF46F6635020800020B7E500BFCD4856
:102CA0000078401CCB49087008460078012801D103
:102CB000FEF70AFD00BFFDF7E7FF00BF0198FEF732
:102CC00051FB00BF00BF00BF4B464246294602A849
:102CD000CDF800B0FFF76AFD00BF00BF00BFFEF7F0
:102CE0003DFB019000BFFDF7EEFF00BFB948007843
:102CF000401EB84908700846007808B9FEF726FD5E
:102D000000BFFDF7C1FF00BF0198FEF72BFB00BF1E
:102D100000BF00BF0DE000BFFDF7B6FF00BF019888
:102D2000FEF720FB00BF00BF45F625602080002095
:102D30006CE500BFFEF785FC00BF00BFFEF70EFB91
:102D4000019000BFFDF7BFFF00BFA348006890F8E7
:102D5000350030B101280CD002282CD003283CD1FA
:102D600019E01FB19C480068006C3860002020808A
:102D700040E01FB198480068006C386000BFFDF764
:102D800083FF00BF0198FEF7EDFA00BF00BF46F2D7
:102D9000A91020802EE00FB10020386000BFFDF7A1
:102DA00073FF00BF0198FEF7DDFA00BF00BF47F2D6
:102DB000D92020801EE01FB187480068006C386071
:102DC00000BFFDF761FF00BF0198FEF7CBFA00BF1F
:102DD00000BF45F6C25020800CE000BFFDF754FF55
:102DE00000BF0198FEF7BEFA00BF00BF46F62E6096
:102DF000208000BF00BF208808B1002006E576488B
:102E00000068D0F88460BAF1010F22D10A98012835
:102E10000BD002280AD0042802D008280AD100E0EA
:102E200000BF286AB043286212E000BF286A30431E
:102E300028620DE000BFFDF727FF00BF0198FEF7F5
:102E400091FA00BF00BF45F6256020800020DDE438
:102E500000BF00BFFDF718FF00BF0198FEF782FA20
:102E600000BF00BF002020803046CFE42DE9F05F96
:102E700005460E4614464FF0000A584800780028D0
:102E800005DD46F2AA1020800020BDE8F09F25B99C
:102E900045F6C35020800020F7E74EB1B6F5807F9D
:102EA00007D0B6F5004F05D0B6F5014F04D102E0CA
:102EB00000BF00BF00BF04E045F625602080002071
:102EC000E3E700BF46492868884204D045F6C4506D
:102ED00020800020D9E700BF00BFFEF73FFA8246FE
:102EE00000BFFDF7F0FE00BF05F10807388968B99B
:102EF00000BFFDF7C9FE00BF5046FEF733FA00BF22
:102F000000BF46F2AB1020800020BEE700BF314872
:102F10000078401C2F49087008460078012801D12C
:102F2000FEF7D2FB00BFFDF7AFFE00BF5046FEF735
:102F300019FA00BF00BF00BF4FF0000808F08DFA7B
:102F400083460FE03868D0F808905A46494628462C
:102F5000FEF728FF08F101001FFA80F8B6F5807F20
:102F600000D002E038890028ECDC00BF00BF00BFC1
:102F700000BFFEF7F3F9824600BFFDF7A4FE00BFD5
:102F800014480078401E134908700846007808B9B4
:102F9000FEF7DCFB00BFFDF777FE00BF5046FEF7F3
:102FA000E1F900BF00BF00BF06F4004008B9FEF71A
:102FB00048FB00202080404667E770B504460026A5
:102FC0000648007800280DDD46F2AE102080002073
:102FD00070BD0000BC000020140100206C00002027
:102FE000464C414700BF00BFFEF7B8F9064600BF98
:102FF000FDF769FE00BFE2480068D0F8845000BFCA
:10300000FDF742FE00BF3046FEF7ACF900BF00BF3F
:10301000002020802846DBE770B504460E461546A2
:1030200034342665002060702070E560A078343C60
:10303000082816D2DFE800F0040508090706101179
:1030400000BF00BF00BF0DE000BF2046FEF79CFEA2
:10305000002084F8360005E000BF042084F8360024
:1030600000E000BF00BF2046FEF717FE70BD2DE94F
:10307000F04F85B00446894692469B46DDF838807D
:103080000020009000BF00BFFEF768F9009000BF6D
:10309000FDF719FE00BFBAF1000F0AD0BAF1010F17
:1030A0000DD0BAF5004F05D06FF40040504460B920
:1030B00006E000BF206A40EA0900206216E000BF77
:1030C000206A20EA0900206210E000BFFDF7DCFD65
:1030D00000BF0098FEF746F900BF00BF45F6256027
:1030E000A8F80000002005B0BDE8F08F00BFC4F8CC
:1030F00024B004F1080001900198008968B900BF6C
:10310000FDF7C2FD00BF0098FEF72CF900BF00BF1D
:103110000020A8F80000206AE5E700BF9948007881
:10312000401C9849087008460078012801D1FEF734
:10313000CBFA00BFFDF7A8FD00BF0098FEF712F91B
:1031400000BF00BF00BF01980768BD6889E07868CC
:10315000029095F8880000F00F0003900398012872
:1031600021D002282ED0042802D0082836D10EE023
:10317000206AD5F8801000EA0106D5F88000B04238
:1031800004D15A4631462846FFF746FF63E0206ADD
:10319000D5F8801000EA010626B15A463146284685
:1031A000FFF73AFF57E0D5F88000216A20EA0106D0
:1031B000D5F88000B04204D15A4631462846FFF780
:1031C0002BFF48E0D5F88000216A20EA010626B1ED
:1031D0005A4631462846FFF71FFF3CE000BF00BFBC
:1031E00000BFFEF7BBF8009000BFFDF76CFD00BF0D
:1031F00064480078401E6349087008460078D0B9DA
:10320000FEF7A4FA6048008800280BDD00BFFDF738
:103210003BFD00BF0098FEF7A5F800BF00BFFEF71A
:1032200035FF11E000BFFDF72FFD00BF0098FEF74E
:1032300099F800BF08E000BFFDF726FD00BF009829
:10324000FEF790F800BF00BF00BF43F6FF20A8F8CC
:103250000000002047E700BF029F0FB1BD6800E0FB
:103260000025002D7FF473AF00BF00BF00BFFEF745
:1032700075F8009000BFFDF726FD00BF41480078BB
:10328000401E404908700846007808B9FEF75EFA0B
:1032900000BFFDF7F9FC00BF0098FEF763F800BF20
:1032A00000BF00BF0AF4004008B9FEF7CAF900BF2A
:1032B00000BFFEF753F8009000BFFDF704FD00BF0C
:1032C000206A049000BFFDF7DFFC00BF0098FEF706
:1032D00049F800BF00BF0020A8F80000049802E7EA
:1032E0002DE9FF470546884617461C4635B945F681
:1032F000C3502080002004B0BDE8F0874FB1012FFB
:1033000008D0B7F5004F06D06FF40040384420B91C
:1033100002E000BF00BF00BF04E045F6256020804A
:103320000020E8E700BF19492868884204D045F624
:10333000C45020800020DEE708F08FF806461448CD
:10334000007800280BDD00231A4629460F48CDE9F6
:103350000087CDE9026400F021F80020CBE7334676
:103360003A46414628460094FFF781FE814648468A
:10337000C1E70021074A1160074A118001807047A8
:1033800014010020BC00002080000020464C414772
:103390006C0000208C000020900000202DE9F84FE8
:1033A00004460D4616461F46DDE90BABDDF82890B6
:1033B000DDF834800020009000BF00BFFDF7CEFF95
:1033C000009000BFFDF77FFC00BFE8480088E84997
:1033D000098888423EDAE5480088401CE3490880B5
:1033E000E44800880988884203DAE0480088E14917
:1033F0000880E14800680460DF4800688560DE48B6
:103400000068C660DC4800680782DB480068C0F8D6
:103410001490D9480068A0F818A0D7480068C0F8F0
:103420001CB0D54800684068D34908600120D349E2
:103430000881D34808604860002001F06BFAD14849
:10344000007818B1CF480078CF4908700020A8F85C
:10345000000008E0CD480088401CCC49088044F2B8
:103460005360A8F8000000BFFDF70EFC00BF0098F5
:10347000FDF778FF00BF00BFBDE8F88F3EB5C44838
:1034800000680068C34A811A904279D00FDCC249B3
:10349000084400283ED0C1490844A8B1C0490844A6
:1034A000002860D0BF49084400286AD13FE0BE48E8
:1034B0000844002850D0BD490844002862D0BC49C7
:1034C00008440028F1D110E002A8B14D00902D6809
:1034D000EB69AF4D2D682A8BAD4D2D686969AC4DF8
:1034E0002D68A868FFF7C3FD7AE002A9A848006824
:1034F000C069A74DCDE900012D682B8BA44D2D6827
:103500002A8AA34D2D68E968A14D2D68A86801F0AD
:10351000EEFD65E09E4B1B68DA699D4B1B68198BBD
:103520009B4B1B68986802AB02F045FA58E002A971
:1035300097480068C069964DCDE900012D682B8B36
:10354000934D2D682A8A924D2D68E968904D2D681B
:10355000A86803F01BFD43E08D490968886802A94B
:1035600003F00BFF3CE08A4B1B68DA69884B1B6851
:10357000198B874B1B68986802AB04F0CFF92FE0DA
:1035800007E02CE082490968886802A904F060FD20
:1035900026E07D49097801EB4101784A02EB810080
:1035A000FEF7A6FD7A48006802AB0021C269814897
:1035B00004F0B4F980480068401E7F49086008465E
:1035C000006858B97D480068086007F046FF044667
:1035D00002AB224600217A4804F0A0F900E000BFC7
:1035E00000BF3EBD002700BF56E0002652E000BFEE
:1035F00000BFFDF7B3FE074600BFFDF764FB00BF49
:103600005A48008898B900205C49088108604860E1
:1036100001F090F900BFFDF737FB00BF3846FDF71A
:10362000A1FE00BF00BFFEF70CF8012632E000BF8C
:10363000FDF72AFB00BF3846FDF794FE00BF00BF30
:1036400007F00BFF0546FFF719FF07F006FF441BC5
:103650005C480068A04201D25A48046000BF00BF25
:10366000FDF77CFE074600BFFDF72DFB00BF484875
:1036700000684068464908603C480088401E3B4955
:10368000088000BFFDF700FB00BF3846FDF76AFE6B
:1036900000BF00BF002EAAD0A7E7F0B589B005464D
:1036A00000203A4908804848006820B944F2526036
:1036B000288009B0F0BD2E480088022803DA44F2C1
:1036C00054602880F5E700203E4908603E480468C1
:1036D0002646203600270CE03C4820600020A060F1
:1036E000E060208260612083666020342036781C90
:1036F00087B21F4800888742EEDB203C32480668CC
:1037000066601D4806602248066000201749088050
:10371000184908802E48006818B944F2556028807E
:10372000C7E72C4800682C490968884203D244F254
:1037300056602880BDE7032000210591CDE90705EB
:10374000069124480068254A1268214B1B68CDE980
:103750000301CDE9013200910B46AFF2771220A1AF
:10376000074802F068FF00BFA3E7000080000020C8
:103770007CB6000882000020780000207C22002017
:10378000A8210020A2000020A40000208400002026
:103790007C0000205449434BADBAB2BE0DF90BFA80
:1037A000F2F8F7FF0006F6FF00F7FDF700FFEFFF66
:1037B00003FE0FFEC4240020100100200C01002095
:1037C0008C2500208800002078B600084E4F4E451A
:1037D00084B600088CB60008C4B6000888B6000895
:1037E00075432F4F532D4949492049535220517554
:1037F000657565205461736B0000000000218161D4
:103800009749096811B90021C16105E09449096827
:10381000C1619349096888619149086070472DE941
:10382000FF4F83B0044615461F46DDE91096002081
:1038300000908C480078002805DD45F2B9603080A2
:1038400007B0BDE8F08F1DB945F2BB603080F7E7E7
:10385000022F03DA45F2BC603080F1E7B9F1040FC2
:1038600003D245F2C1603080EAE74FF0030ABAF1B3
:10387000000F0DD005EA0A0018B145F2BB60308098
:10388000DEE709EA0A0018B145F2C1603080D7E7E7
:10389000AB46A846781E80B201900020029007E057
:1038A000C844CBF80080C3460298401C80B2029006
:1038B000DDE901108842F3DB0020CBF8000000BFF7
:1038C00000BF00BFFDF74AFD009000BFFDF7FBF908
:1038D00000BF65480078401C6349087008460078BE
:1038E000012801D1FDF7F0FE00BFFDF7CDF900BFC3
:1038F0000098FDF737FD00BF00BF00BF5B482060A8
:103900000498A0606560E560A7826782A4F81090C3
:103910002046FFF773FF56480088401C5449088032
:1039200000BF00BF00BFFDF719FD009000BFFDF70D
:10393000CAF900BF4C480078401E4B490870084641
:10394000007808B9FDF702FF00BFFDF79DF900BF41
:103950000098FDF707FD00BF00BF00BF00203080CA
:1039600000BF6DE72DE9F04104460D4600272CB954
:1039700045F2BF6028800020BDE8F08100BF00BF95
:10398000FDF7ECFC074600BFFDF79DF900BFA08ADC
:1039900068B900BFFDF778F900BF3846FDF7E2FCD3
:1039A00000BF00BF45F2C26028800020E4E7E6685F
:1039B0003068E060A08A401EA08200BFFDF764F975
:1039C00000BF3846FDF7CEFC00BF00BF00202880B6
:1039D0003046D1E72DE9F04104460E461546002752
:1039E00024B945F2BF602880BDE8F0811EB945F2D8
:1039F000BE602880F8E700BF00BFFDF7AFFC0746B8
:103A000000BFFDF760F900BFA08A618A88420CDB25
:103A100000BFFDF739F900BF3846FDF7A3FC00BF32
:103A200000BF45F2BA602880DEE7E0683060E660FB
:103A3000A08A401CA08200BFFDF726F900BF3846CF
:103A4000FDF790FC00BF00BF0020288000BFCBE73F
:103A50000021034A1160064A11800180704700006E
:103A6000940000206C000020BC0000204D454D203B
:103A70009800002070B50146854D2D681DB945F2AE
:103A80001E750D8070BD834D2D881DB945F21D75C5
:103A90000D80F7E77E4D28682A6810327D4D2D880D
:103AA0006D1EACB2002308E0026000254560058170
:103AB000C560103010325D1CABB2A342F4DB0025B0
:103AC000056045600581C560714D2D68724E356099
:103AD000704D2D88B5800025F58035810D8000BFA3
:103AE000D0E710B5014648894B89002B17DD0A68DD
:103AF000694B1B681360684C4B6823602346DB8866
:103B00004C891B1B644CE38023469B884C892344CF
:103B1000614CA38000234B818B810B604B6010BDF7
:103B20000181002242818281026042607047F0B5CB
:103B300004460D46608940B90020288002B110601B
:103B400046F2925018800020F0BD61684E680889E6
:103B500028800AB1C868106008686060606818B999
:103B600000202060608102E06089401E60814A4838
:103B700000680860484801608088401C464FB88053
:103B80003846C088401EF880002018803046DBE7A9
:103B90002DE9F0410D46DDE90674B0F80AC0B0F831
:103BA0000880C44505DB46F2935CA4F800C0BDE87C
:103BB000F081DFF8E4C0BCF804C0BCF1000F04D110
:103BC00045F21D7CA4F800C0F1E7DFF8CCC0DCF8BA
:103BD0000010DFF8C480D1F800C0C8F800C0C446A7
:103BE000BCF804C0ACF1010CA8F804C0C446BCF891
:103BF00006C00CF1010CA8F806C0C446BCF808C009
:103C0000B8F80680C44507DADFF88CC0BCF806C0F7
:103C1000DFF88480A8F808C0B0F80AC0BCF1000F33
:103C20000AD1016041604FF0010CA0F80AC04FF0CA
:103C3000000CC1F800C017E003F0100CBCF1000F3D
:103C400007D10668316001604FF0000CC1F800C078
:103C500004E0D0F804C0C1F800C04160B0F80AC068
:103C60000CF1010CA0F80AC0B0F80CC0B0F80A8042
:103C7000C44503DAB0F80AC0A0F80CC04D600A8150
:103C8000CF604FF0000CA4F800C000BF8FE7000029
:103C9000A8B60008A0B6000870220020F9A1C161F2
:103CA00000214161F849096811B90021816105E0ED
:103CB000F54909688161F44909684861F249086079
:103CC00070472DE9F04104460E4615460027EF489F
:103CD0000078002804DD42F6E1602880BDE8F0812C
:103CE0001CB945F6C3502880F8E700BF00BF00BFED
:103CF000FDF734FB074600BFFCF7E5FF00BFE448D3
:103D00000078401CE249087008460078012801D17B
:103D1000FDF7DAFC00BFFCF7B7FF00BF3846FDF740
:103D200021FB00BF00BF00BFDA48206066600020B2
:103D3000206284F82500A062202084F8240004F189
:103D40000800FEF7B6F82046FFF7A8FFD248008823
:103D5000401CD149088000BF00BF00BFFDF7FEFA3C
:103D6000074600BFFCF7AFFF00BFC9480078401E00
:103D7000C74908700846007808B9FDF7E7FC00BF9E
:103D8000FCF782FF00BF3846FDF7ECFA00BF00BF2A
:103D900000BF0020288000BFA0E710B50446BF4840
:103DA0002060BFA060600020206284F82500A0622F
:103DB000202084F8240004F10800FEF77AF810BDF2
:103DC000426981693AB9B04B196009B100234B616E
:103DD0000023836109E019B900239361436104E082
:103DE00091614A6100238361436170472DE9FE4F71
:103DF00005468946144600200090A4480078002813
:103E000005DD43F2C92020800020BDE8FE8F25B9E2
:103E100045F6C35020800020F7E7B9F1000F03D02A
:103E2000B9F1010F02D100E000BF04E045F62560C2
:103E300020800020E9E700BF96492868884204D026
:103E400045F6C45020800020DFE700BF00BF00BF60
:103E5000FDF784FA009000BFFCF735FF00BF8C48E7
:103E60000078401C8A49087008460078012801D172
:103E7000FDF72AFC00BFFCF707FF00BF0098FDF725
:103E800071FA00BF00BF00BF05F1080ABAF8087058
:103E9000B846B9F1000F03D0B9F1010F75D183E035
:103EA000B8F1000F44D12846FFF78AFF7A4800880E
:103EB000401E794908802846FFF76FFF00BF00BF0A
:103EC00000BFFDF74BFA009000BFFCF7FCFE00BFFF
:103ED0006F480078401E6E49087008460078D0B9D7
:103EE000FDF734FC7048008800280BDD00BFFCF7AC
:103EF000CBFE00BF0098FDF735FA00BF00BFFEF70C
:103F0000C5F811E000BFFCF7BFFE00BF0098FDF749
:103F100029FA00BF08E000BFFCF7B6FE00BF00981A
:103F2000FDF720FA00BF00BF00BF002020803AE06C
:103F300000BF00BF00BFFDF711FA009000BFFCF703
:103F4000C2FE00BF52480078401E51490870084622
:103F50000078D8B9FDF7FAFB5348008800280BDD3C
:103F600000BFFCF791FE00BF0098FDF7FBF900BF12
:103F700000BFFEF78BF812E000BFFCF785FE00BF24
:103F80000098FDF7EFF900BF09E0D1E000BFFCF7B2
:103F90007BFE00BF0098FDF7E5F900BF00BF00BF42
:103FA00047F25F102080FEE02E6A002E7ED096F849
:103FB000370095F8241088427AD096F83600082801
:103FC00024D2DFE800F004131A1B14151C1D304620
:103FD000FDF7A7FD95F8240086F8370096F837001E
:103FE00000F098FC3046FDF79FFE60E000BF00BF88
:103FF00095F8240086F8370059E000BF00BF00BFE5
:1040000095F824103046FDF731FF50E000BF00BFA7
:1040100000BFFDF7A3F9009000BFFCF754FE00BFFE
:104020001B480078401E1A49087008460078D0B92D
:10403000FDF78CFB1C48008800280BDD00BFFCF757
:1040400023FE00BF0098FDF78DF900BF00BFFEF70B
:104050001DF811E000BFFCF717FE00BF0098FDF748
:1040600081F900BF08E000BFFCF70EFE00BF00981A
:10407000FDF778F900BF00BF00BF46F62D60208035
:104080000020C2E6200000009C0000206C00002000
:10409000BC0000204D555458A00000204E4F4E4506
:1040A0003F4D5554455800008000002000E000BFFF
:1040B00007F0D3F901900BE0DAF800B0DBF8080064
:1040C00002902846DDE90121FDF71AFF781E87B22C
:1040D000002FF1D12846FFF773FEF9480088401EF3
:1040E000F74908802846FFF758FE00BF00BF00BF11
:1040F000FDF734F9009000BFFCF7E5FD00BFF14883
:104100000078401EEF4908700846007808B9FDF7AE
:104110001DFB00BFFCF7B8FD00BF0098FDF722F9BA
:1041200000BF00BF00BFFDF78CFA002020803AE0FE
:1041300000BF00BF00BFFDF711F9009000BFFCF702
:10414000C2FD00BFDF480078401EDE490870084607
:104150000078D0B9FDF7FAFADB48008800280BDDBB
:1041600000BFFCF791FD00BF0098FDF7FBF800BF12
:1041700000BFFDF78BFF11E000BFFCF785FD00BF1E
:104180000098FDF7EFF800BF08E000BFFCF77CFDEA
:1041900000BF0098FDF7E6F800BF00BF00BF45F67E
:1041A0002560208000BF00BF40462EE62DE9F04785
:1041B00088B00546894690461C46109E4FF0000A7E
:1041C000C2480078002805DD46F2AE10308008B005
:1041D000BDE8F0871DB945F6C3503080F7E7B8F168
:1041E000000F03D0B8F5004F02D100E000BF03E09C
:1041F00045F625603080EAE700BFB5492868884267
:1042000003D045F6C4503080E1E70CB100202060B7
:1042100000BF00BFFDF7A2F8824600BFFCF753FDC8
:1042200000BF95F82500D0B9AA4800682862A948BF
:10423000006890F8370085F82400012085F82500F3
:104240000CB1A86A206000BFFCF71EFD00BF5046FD
:10425000FDF788F800BF00BF00203080B7E79D4918
:10426000286A0968884214D195F82500401C85F811
:1042700025000CB1A86A206000BFFCF705FD00BF57
:104280005046FDF76FF800BF00BF45F282703080E6
:104290009DE708F4004060B100BFFCF7F5FC00BFEB
:1042A0005046FDF75FF800BF00BF46F2B010308007
:1042B0008DE78448007800280CDD00BFFCF7E4FCA3
:1042C00000BF5046FDF74EF800BF00BF46F66350F2
:1042D00030807CE700BF7B480078401C794908703B
:1042E00008460078012801D1FDF7EEF900BFFCF780
:1042F000CBFC00BF5046FDF735F800BF00BF00BF44
:104300002F6A97F837007349096891F83710884287
:104310006ADD97F8360008282AD2DFE800F0041595
:104320001E1F171620213846FDF7FBFB6948006861
:1043300090F8370087F8370097F8370000F0EAFA6E
:104340003846FDF7D4FC4EE000BF00BF614800686E
:1043500090F8370087F8370045E000BF00BF00BF86
:104360005C48006890F837103846FDF77FFD3AE06A
:1043700000BF00BF00BFFCF7F1FF824600BFFCF7A3
:10438000A2FC00BF4F480078401E4E490870084606
:104390000078D0B9FDF7DAF94B48008800280BDD2A
:1043A00000BFFCF771FC00BF5046FCF7DBFF00BF0D
:1043B00000BFFDF76BFE11E000BFFCF765FC00BF1E
:1043C0005046FCF7CFFF00BF08E000BFFCF75CFCE5
:1043D00000BF5046FCF7C6FF00BF00BF00BF46F657
:1043E0002D603080F3E600BF4B4604222946684624
:1043F000FDF7DEFB00BF00BF00BFFCF7AFFF82464A
:1044000000BFFCF760FC00BF2E480078401E2D491D
:1044100008700846007808B9FDF798F900BFFCF766
:1044200033FC00BF5046FCF79DFF00BF00BF00BF3C
:10443000FDF707F900BF00BFFCF790FF824600BF01
:10444000FCF741FC00BF2348006890F8350030B10C
:1044500001280CD002281AD0032821D110E01CB169
:104460001C480068006C2060002030801CE01CB1FB
:1044700018480068006C206046F2A910308013E0F4
:104480000CB10020206047F2D92030800CE01CB134
:1044900010480068006C206045F6C250308003E090
:1044A00046F62E60308000BF00BF00BFFCF7ECFB7B
:1044B00000BF5046FCF756FF00BF00BF00BF86E6B6
:1044C000A0000020BC000020800000206C00002024
:1044D0004D555458140100202DE9F05F05460E4655
:1044E00014464FF0000AF5480078002805DD46F232
:1044F000AA1020800020BDE8F09F25B945F6C350E2
:1045000020800020F7E74EB1B6F5807F07D0B6F5E2
:10451000004F05D0B6F5014F04D102E000BF00BF47
:1045200000BF04E045F6256020800020E3E700BFDF
:10453000E3492868884204D045F6C4502080002012
:10454000D9E700BF00BFFCF709FF824600BFFCF7B8
:10455000BAFB00BF05F10807388968B900BFFCF74E
:1045600093FB00BF5046FCF7FDFE00BF00BF46F2C4
:10457000AB1020800020BEE700BFD2480078401C6E
:10458000D049087008460078012801D1FDF79CF851
:1045900000BFFCF779FB00BF5046FCF7E3FE00BF0D
:1045A00000BF00BF4FF0000806F057FF83460FE042
:1045B0003868D0F808905A4649462846FDF7F2FB7D
:1045C00008F101001FFA80F8B6F5807F00D002E004
:1045D00038890028ECDC00BF00BF00BF00BFFCF73B
:1045E000BDFE824600BFFCF76EFB00BFB5480078F9
:1045F000401EB44908700846007808B9FDF7A6F8CF
:1046000000BFFCF741FB00BF5046FCF7ABFE00BF0C
:1046100000BF00BF06F4004008B9FDF712F8002003
:104620002080404667E72DE9F84F04468846154646
:104630004FF0000AA1480078002804DD46F20E2061
:104640002880BDE8F88F1CB945F6C3502880F8E7EC
:10465000B8F1000F03D0B8F5004F02D100E000BF61
:1046600003E045F625602880EBE700BF9449206809
:10467000884203D045F6C4502880E2E700BF00BF5F
:10468000FCF76CFE824600BFFCF71DFB00BF8E49A5
:10469000206A096888420CD000BFFCF7F5FA00BF19
:1046A0005046FCF75FFE00BF00BF45F281702880D6
:1046B000C7E700BF83480078401C8249087008465D
:1046C0000078012801D1FCF7FFFF00BFFCF7DCFAFE
:1046D00000BF5046FCF746FE00BF00BF00BF06F01B
:1046E000BCFE0746A76294F82500401E84F825000A
:1046F00094F8250000283ADD00BF00BF00BFFCF79A
:104700002DFE824600BFFCF7DEFA00BF6D48007840
:10471000401E6C49087008460078D0B9FDF716F8BD
:104720006A48008800280BDD00BFFCF7ADFA00BF27
:104730005046FCF717FE00BF00BFFDF7A7FC11E0D5
:1047400000BFFCF7A1FA00BF5046FCF70BFE00BF0C
:1047500008E000BFFCF798FA00BF5046FCF702FEE5
:1047600000BF00BF00BF45F28370288069E704F1F5
:104770000809B9F8080080BB0020206284F82500F1
:1047800000BF00BF00BFFCF7E9FD824600BFFCF799
:104790009AFA00BF4B480078401E4A490870084604
:1047A0000078D8B9FCF7D2FF4848008800280BDD14
:1047B00000BFFCF769FA00BF5046FCF7D3FD00BF0D
:1047C00000BFFDF763FC12E000BFFCF75DFA00BF1D
:1047D0005046FCF7C7FD00BF09E00CE000BFFCF746
:1047E00053FA00BF5046FCF7BDFD00BF00BF00BF3D
:1047F0000020288025E73448006890F8370094F8B6
:104800002410884219D030480068FDF78AF994F8DE
:1048100024002D49096881F837002B49096891F86F
:10482000370000F077F828480068FDF77DFA264841
:10483000006890F8370026490870D9F800008668AB
:10484000266296F8370084F82400012084F82500B9
:1048500000231A46314620460097FDF7B7FB00BFFC
:1048600000BF00BFFCF77AFD824600BFFCF72BFAC1
:1048700000BF14480078401E1249087008460078AE
:1048800008B9FCF763FF00BFFCF7FEF900BF504614
:10489000FCF768FD00BF00BF00BF08F4004008B986
:1048A000FCF7CFFE0020288000BFCAE60021094A9D
:1048B0001160094A11800180704700006C000020DF
:1048C0004D555458BC0000201401002080000020E9
:1048D000A20000209C000020A0000020002004E096
:1048E00000211C4A42F82010401C0028F8D07047D4
:1048F00070B50025174C03E005F12000C5B2241D5A
:1049000020680028F8D02068FCF733FD2844C5B2A1
:10491000284670BD30B5420900F01F030121C3F1E4
:104920001F04A1400B4C54F822400C43094D45F89C
:10493000224030BD30B5420900F01F030121C3F110
:104940001F04A140034C54F822408C43014D45F80C
:10495000224030BD48000020FCA1C161002141611E
:10496000FB49096811B90021816105E0F84909682E
:104970008161F74909684861F549086070472DE988
:10498000F04104460F4616461D464FF00008F14818
:104990000078002804DD42F6E1602880BDE8F0815F
:1049A0001CB945F6C3502880F8E71EB946F294506A
:1049B0002880F3E700BF00BF00BFFCF7CFFC8046B4
:1049C00000BFFCF780F900BFE3480078401CE249D3
:1049D000087008460078012801D1FCF775FE00BF79
:1049E000FCF752F900BF4046FCF7BCFC00BF00BF1B
:1049F00000BFDA4820606760314604F12000FFF70D
:104A00008FF804F10800FDF754FA2046FFF7A4FFE1
:104A1000D3480088401CD249088000BF00BF00BFB7
:104A2000FCF79CFC804600BFFCF74DF900BFCA486C
:104A30000078401EC84908700846007808B9FCF79D
:104A400085FE00BFFCF720F900BF4046FCF78AFC5A
:104A500000BF00BF00BF0020288000BF9EE710B548
:104A6000044604F12000FFF73CF8BE482060BEA0D9
:104A70006060002104F12000FFF752F804F1080003
:104A8000FDF717FA10BD426981693AB9B04B196058
:104A900009B100234B610023836109E019B90023A8
:104AA0009361436104E091614A6100238361436142
:104AB00070472DE9FC5F05468846144600200090AB
:104AC000A4480078002805DD43F2C920208000209A
:104AD000BDE8FC9F25B945F6C35020800020F7E7CC
:104AE000B8F1000F03D0B8F1010F02D100E000BF10
:104AF00004E045F6256020800020E9E700BF9749E3
:104B00002868884204D045F6C45020800020DFE7A2
:104B100000BF00BFFCF722FC009000BFFCF7D3F8F9
:104B200000BF05F10809B9F808603746B8F1000F71
:104B300003D0B8F1010F7BD124E0B7B92846FFF7C5
:104B4000A2FF87480088401E854908802846FFF755
:104B500086FF00BFFCF798F800BF0098FCF702FC46
:104B600000BF00BF002020800BE000BFFCF78CF8E6
:104B700000BF0098FCF7F6FB00BF00BF47F25F10D4
:104B8000208062E000BF74480078401C72490870C1
:104B900008460078012801D1FCF796FD00BFFCF71C
:104BA00073F800BF0098FCF7DDFB00BF00BF00BF3B
:104BB00006F053FC01900AE0D9F800A0DAF808B03A
:104BC00059462846019AFDF79BF9701E86B2002EC1
:104BD000F2D12846FFF757FF61480088401E604920
:104BE00008802846FFF73BFF00BF00BF00BFFCF76F
:104BF000B5FB009000BFFCF766F800BF5648007890
:104C0000401E554908700846007808B9FCF79EFD1B
:104C100000BFFCF739F800BF0098FCF7A3FB00BF0A
:104C200000BF00BFFCF70DFD002020800DE0FFE776
:104C300000BFFCF729F800BF0098FCF793FB00BF0A
:104C400000BF45F62560208000BF00BF38463FE723
:104C50002DE9F04105460C4600263E480078002824
:104C600005DD4FF46C5020800020BDE8F08125B9AF
:104C700045F6C35020800020F7E73849286888426D
:104C800004D045F6C45020800020EEE700BF00BFEE
:104C900000BFFCF763FB064600BFFCF714F800BF3B
:104CA0002D480078401C2C490870084600780128DF
:104CB00001D1FCF709FD00BFFBF7E6FF00BF30465E
:104CC000FCF750FB00BF00BF00BF05F12000FEF75E
:104CD00008FF074600BF00BF00BFFCF73FFB0646CA
:104CE00000BFFBF7F0FF00BF1B480078401E1A49C9
:104CF000087008460078D0B9FCF728FD1B480088EA
:104D000000280BDD00BFFBF7BFFF00BF3046FCF7FC
:104D100029FB00BF00BFFDF7B9F911E000BFFBF7A9
:104D2000B3FF00BF3046FCF71DFB00BF08E000BF2B
:104D3000FBF7AAFF00BF3046FCF714FB00BF00BF23
:104D400000BF0020208038468FE7000020000000D0
:104D5000A80000206C000020BC00002051554555E3
:104D6000AC0000204E4F4E453F5100008000002017
:104D70002DE9F04F89B00746894690461E46DDE989
:104D800012544FF0000BFE480078002806DD46F272
:104D9000AE102080002009B0BDE8F08F27B945F69D
:104DA000C35020800020F6E726B946F2D5202080A7
:104DB0000020F0E7B8F1000F03D0B8F5004F02D1A2
:104DC00000E000BF04E045F6256020800020E2E717
:104DD00000BFEC493868884204D045F6C4502080B2
:104DE0000020D8E70DB10020286000BF00BFFCF70D
:104DF000B5FA834600BFFBF766FF00BF23462A468D
:104E0000314607F12000FEF792FE8246208850B915
:104E100000BFFBF739FF00BF5846FCF7A3FA00BFFD
:104E200000BF5046B7E708F4004068B100BFFBF789
:104E30002BFF00BF5846FCF795FA00BF00BF46F2B3
:104E4000B01020800020A6E7CF48007800280DDDB4
:104E500000BFFBF719FF00BF5846FCF783FA00BFFD
:104E600000BF46F663502080002094E700BFC6488C
:104E70000078401CC449087008460078012801D118
:104E8000FCF722FC00BFFBF7FFFE00BF5846FCF713
:104E900069FA00BF00BF00BF4B460522394601A892
:104EA000FCF786FE00BF00BF00BFFCF757FA834641
:104EB00000BFFBF708FF00BFB3480078401EB249AF
:104EC00008700846007808B9FCF740FC00BFFBF703
:104ED000DBFE00BF5846FCF745FA00BF00BF00BF2D
:104EE000FCF7AFFB00BF00BFFCF738FA834600BFFA
:104EF000FBF7E9FE00BFA548006890F8350030B127
:104F0000012815D002282AD0032835D11DE09F485A
:104F10000068D0F85CA09D480068B0F86000308060
:104F20001DB19A480068006C2860002020802BE0AA
:104F30004FF0000A002030801DB194480068006CDA
:104F4000286046F2A91020801EE04FF0000A0020E1
:104F5000308005B1286047F2D920208014E04FF05E
:104F6000000A002030801DB188480068006C28606D
:104F700045F6C250208007E04FF0000A0020308044
:104F800046F62E60208000BF00BF00BFFBF77CFE0E
:104F900000BF5846FCF7E6F900BF00BF5046FAE6EE
:104FA0002DE9F05F05460E4614464FF0000A74489E
:104FB0000078002805DD46F2AA1020800020BDE818
:104FC000F09F25B945F6C35020800020F7E74EB189
:104FD000B6F5807F07D0B6F5004F05D0B6F5014F86
:104FE00004D102E000BF00BF00BF04E045F6256029
:104FF00020800020E3E700BF62492868884204D08F
:1050000045F6C45020800020D9E700BF00BFFCF760
:10501000A5F9824600BFFBF756FE00BF05F1080761
:10502000388968B900BFFBF72FFE00BF5046FCF778
:1050300099F900BF00BF46F2AB1020800020BEE708
:1050400000BF51480078401C4F490870084600785E
:10505000012801D1FCF738FB00BFFBF715FE00BFAC
:105060005046FCF77FF900BF00BF00BF4FF00008BB
:1050700006F0F3F983460FE03868D0F808905A46F6
:1050800049462846FCF78EFE08F101001FFA80F819
:10509000B6F5807F00D002E038890028ECDC00BF44
:1050A00000BF00BF00BFFCF759F9824600BFFBF705
:1050B0000AFE00BF34480078401E33490870084695
:1050C000007808B9FCF742FB00BFFBF7DDFD00BF2D
:1050D0005046FCF747F900BF00BF00BF06F4004090
:1050E00008B9FCF7AEFA00202080404667E72DE9BA
:1050F000F04F85B007468A4693461C460020029032
:1051000000BF00BF00BFFCF729F9029000BFFBF70A
:10511000DAFD00BF1C480078401C1B490870084697
:105120000078012801D1FCF7CFFA00BFFBF7ACFDF6
:1051300000BF0298FCF716F900BF00BF00BF07F1DF
:1051400008063089002856D104F0100010B94FF03D
:10515000000801E04FF01008DDE90E0143465A4611
:10516000CDE90001514607F12000FEF711FD00BF17
:1051700000BF00BFFCF7F2F8029000BF08E000009B
:105180006C00002051554555BC0000201401002042
:10519000FBF799FD00BF6A480078401E6849087017
:1051A00008460078D0B9FCF7D1FA66480088002894
:1051B0000BDD00BFFBF768FD00BF0298FCF7D2F8DB
:1051C00000BF00BFFCF762FF11E000BFFBF75CFD12
:1051D00000BF0298FCF7C6F800BF08E000BFFBF76D
:1051E00053FD00BF0298FCF7BDF800BF00BF00BF31
:1051F00005B0BDE8F08F04F4007008B1358900E017
:105200000125D6F8009011E0D9F808000390D9F8EC
:10521000040004900E985B4652460090384603996D
:10522000FCF7D4FEDDF81090681E85B2002DEBD19E
:1052300000BF00BF00BFFCF791F8029000BFFBF772
:1052400042FD00BF3E480078401E3D4908700846B8
:10525000007808B9FCF77AFA00BFFBF715FD00BF2C
:105260000298FCF77FF800BF00BF00BF04F40040C5
:1052700008B9FCF7E6F900210F98018000BFB7E7F5
:105280002DE9FF470546884691461F460C9C25B9E7
:1052900045F6C3502080BDE8FF87B7F5004F19D011
:1052A00009DC9FB1102F12D0B7F5007F10D0B7F5F1
:1052B000047F13D10DE0A7F50040103858B1B0F5C8
:1052C000F87F09D0B0F5007F08D106E000BF00BF2D
:1052D00000BF00BF00BF00BF00BF03E045F6256070
:1052E0002080D8E700BF18492868884203D045F6D7
:1052F000C4502080CFE706F0B0F806461348007887
:1053000000280BDD00204B4642462946CDE90176B8
:10531000039400900C48FEF741F8BCE73B464A4630
:1053200041462846CDE90064FFF7E1FE00BFB2E741
:105330000021074A1160074A118001807047000070
:10534000BC00002080000020515545556C00002015
:10535000A8000020AC000020FEA1C1610021416135
:10536000FD49096811B90021816105E0FA49096820
:105370008161F94909684861F749086070472DE97A
:10538000F04104460E4617461D464FF00008F3480C
:105390000078002804DD42F6E1602880BDE8F08155
:1053A0001CB945F6C3502880F8E700BF00BF00BF16
:1053B000FBF7D4FF804600BFFBF785FC00BFE84841
:1053C0000078401CE649087008460078012801D1A1
:1053D000FCF77AF900BFFBF757FC00BF4046FBF72C
:1053E000C1FF00BF00BF00BFDE4820602762002071
:1053F0006062666004F10800FCF75BFD2046FFF781
:10540000ABFFD9480088401CD749088000BF00BFC7
:1054100000BFFBF7A3FF804600BFFBF754FC00BFB3
:10542000CF480078401ECE4908700846007808B979
:10543000FCF78CF900BFFBF727FC00BF4046FBF7E9
:1054400091FF00BF00BF00BF0020288000BFA5E77C
:1054500010B50446C5482060002020626062C4A0E8
:10546000606004F10800FCF724FD10BD4269816909
:105470003AB9B94B196009B100234B61002383612C
:1054800009E019B900239361436104E091614A6125
:1054900000238361436170472DE9FC5F0546884620
:1054A000144600200090AD480078002805DD43F246
:1054B000C92020800020BDE8FC9F25B945F6C350D7
:1054C00020800020F7E7B8F1000F03D0B8F1010FFA
:1054D00002D100E000BF04E045F6256020800020F6
:1054E000E9E700BF9F492868884204D045F6C450C8
:1054F00020800020DFE700BF00BFFBF72FFF0090F8
:1055000000BFFBF7E0FB00BF05F10809B9F8086030
:105510003746B8F1000F03D0B8F1010F7BD124E07A
:10552000B7B92846FFF7A2FF8F480088401E8E4972
:1055300008802846FFF78CFF00BFFBF7A5FB00BFE4
:105540000098FBF70FFF00BF00BF002020800BE09A
:1055500000BFFBF799FB00BF0098FBF703FF00BFFC
:1055600000BF47F25F10208062E000BF7C480078F7
:10557000401C7B49087008460078012801D1FCF7DF
:10558000A3F800BFFBF780FB00BF0098FBF7EAFE23
:1055900000BF00BF00BF05F060FF01900AE0D9F82E
:1055A00000A0DAF808B059462846019AFCF7A8FC92
:1055B000701E86B2002EF2D12846FFF757FF6A48C8
:1055C0000088401E684908802846FFF741FF00BF59
:1055D00000BF00BFFBF7C2FE009000BFFBF773FBEC
:1055E00000BF5F480078401E5D490870084600789B
:1055F00008B9FCF7ABF800BFFBF746FB00BF00980B
:10560000FBF7B0FE00BF00BF00BFFCF71AF8002098
:1056100020800DE0FFE700BFFBF736FB00BF0098DE
:10562000FBF7A0FE00BF00BF45F62560208000BF4D
:1056300000BF38463FE72DE9F04788B00646894667
:1056400090461C46109D4FF0000A44480078002800
:1056500006DD46F2AE102880002008B0BDE8F087D5
:1056600026B945F6C35028800020F6E7B8F1000FB0
:1056700003D0B8F5004F02D100E000BF04E045F6CA
:10568000256028800020E8E700BF3649306888425E
:1056900004D045F6C45028800020DEE70CB100207D
:1056A000206000BF00BFFBF759FE824600BFFBF73A
:1056B0000AFB00BF306A98B1306A401E30620CB1FC
:1056C000706A2060376A00BFFBF7DEFA00BF504601
:1056D000FBF748FE00BF00BF002028803846BCE72B
:1056E00008F4004070B1376A00BFFBF7CDFA00BF85
:1056F0005046FBF737FE00BF00BF46F2B0102880CF
:105700003846AAE71648007800280DDD00BFFBF7F1
:10571000BBFA00BF5046FBF725FE00BF00BF46F6B0
:1057200063502880002098E700BF0D480078401C97
:105730000B49087008460078012801D1FBF7C4FF27
:1057400000BFFBF7A1FA00BF5046FBF70BFE00BFFE
:1057500000BF11E020000000C80000206C00002005
:10576000BC00002053454D41CC0000204E4F4E451B
:105770003F53454D0000000000BF4B460622314616
:105780006846FCF715FA00BF00BF00BFFBF7E6FD57
:10579000824600BFFBF797FA00BFF8480078401E2A
:1057A000F64908700846007808B9FBF7CFFF00BF3C
:1057B000FBF76AFA00BF5046FBF7D4FD00BF00BFFD
:1057C00000BFFBF73EFF00BF00BFFBF7C7FD8246EF
:1057D00000BFFBF778FA00BFE948006890F8350091
:1057E00030B101280CD002281AD0032821D110E0B2
:1057F0001CB1E3480068006C20600020288026E08F
:105800001CB1DF480068006C206046F2A9102880B7
:105810001DE00CB10020206047F2D920288016E05E
:105820001CB1D7480068006C206045F6C250288043
:105830000DE046F62E60288000BFFBF725FA00BF7A
:105840005046FBF78FFD00BF00BF002005E700BFFB
:10585000376A00BFFBF718FA00BF5046FBF782FD1E
:1058600000BF00BF3846F8E62DE9F05F05460E465A
:1058700014464FF0000AC3480078002805DD46F2C0
:10588000AA1020800020BDE8F09F25B945F6C3503E
:1058900020800020F7E74EB1B6F5807F07D0B6F53F
:1058A000004F05D0B6F5014F04D102E000BF00BFA4
:1058B00000BF04E045F6256020800020E3E700BF3C
:1058C000B1492868884204D045F6C45020800020A1
:1058D000D9E700BF00BFFBF741FD824600BFFBF7E1
:1058E000F2F900BF05F10807388968B900BFFBF776
:1058F000CBF900BF5046FBF735FD00BF00BF46F2B5
:10590000AB1020800020BEE700BF9C480078401C00
:105910009A49087008460078012801D1FBF7D4FEA7
:1059200000BFFBF7B1F900BF5046FBF71BFD00BFFE
:1059300000BF00BF4FF0000805F08FFD83460FE069
:105940003868D0F808905A4649462846FCF72AFAA3
:1059500008F101001FFA80F8B6F5807F00D002E060
:1059600038890028ECDC00BF00BF00BF00BFFBF798
:10597000F5FC824600BFFBF7A6F900BF7F48007820
:10598000401E7E4908700846007808B9FBF7DEFE25
:1059900000BFFBF779F900BF5046FBF7E3FC00BFFF
:1059A00000BF00BF06F4004008B9FBF74AFE002024
:1059B0002080404667E72DE9FF5F04468846914610
:1059C0001D460020019000BF00BFFBF7C7FC0190FF
:1059D00000BFFBF778F900BF04F1080738890028F9
:1059E00057D10420012804D0022816D004283AD127
:1059F00027E0206AFF280FD100BFFBF745F900BF61
:105A00000198FBF7AFFC00BF00BF46F6C5502880E9
:105A1000002004B0BDE8F09F26E04FF6FF71206A39
:105A200088420DD100BFFBF72FF900BF0198FBF7AB
:105A300099FC00BF00BF46F6C55028800020E8E76B
:105A400012E0206A401C68B900BFFBF71DF900BFD7
:105A50000198FBF787FC00BF00BF46F6C5502880C1
:105A60000020D6E700E000BF00BF206A401C206293
:105A7000D4F820A0C4F8249000BFFBF705F900BFBC
:105A80000198FBF76FFC00BF00BF00202880504644
:105A9000BFE700BF39480078401C38490870084605
:105AA0000078012801D1FBF70FFE00BFFBF7ECF8EF
:105AB00000BF0198FBF756FC00BF00BF00BF08F411
:105AC000007008B13E8900E00126D7F800B011E06F
:105AD000DBF808000290DBF80400039000231A466C
